{
  "_format": "hh-sol-artifact-1",
  "contractName": "MedicalRecordsRegistry",
  "sourceName": "contracts/MedicalRecordsRegistry.sol",
  "abi": [
    {
      "inputs": [],
      "stateMutability": "nonpayable",
      "type": "constructor"
    },
    {
      "inputs": [
        {
          "internalType": "address",
          "name": "owner",
          "type": "address"
        }
      ],
      "name": "OwnableInvalidOwner",
      "type": "error"
    },
    {
      "inputs": [
        {
          "internalType": "address",
          "name": "account",
          "type": "address"
        }
      ],
      "name": "OwnableUnauthorizedAccount",
      "type": "error"
    },
    {
      "inputs": [],
      "name": "ReentrancyGuardReentrantCall",
      "type": "error"
    },
    {
      "anonymous": false,
      "inputs": [
        {
          "indexed": true,
          "internalType": "string",
          "name": "granterDID",
          "type": "string"
        },
        {
          "indexed": true,
          "internalType": "string",
          "name": "granteeDID",
          "type": "string"
        },
        {
          "indexed": false,
          "internalType": "uint256",
          "name": "expiryTime",
          "type": "uint256"
        },
        {
          "indexed": false,
          "internalType": "string[]",
          "name": "recordTypes",
          "type": "string[]"
        }
      ],
      "name": "ConsentGranted",
      "type": "event"
    },
    {
      "anonymous": false,
      "inputs": [
        {
          "indexed": true,
          "internalType": "string",
          "name": "granterDID",
          "type": "string"
        },
        {
          "indexed": true,
          "internalType": "string",
          "name": "granteeDID",
          "type": "string"
        }
      ],
      "name": "ConsentRevoked",
      "type": "event"
    },
    {
      "anonymous": false,
      "inputs": [
        {
          "indexed": true,
          "internalType": "uint256",
          "name": "recordId",
          "type": "uint256"
        },
        {
          "indexed": true,
          "internalType": "string",
          "name": "userDID",
          "type": "string"
        },
        {
          "indexed": false,
          "internalType": "string",
          "name": "documentCID",
          "type": "string"
        },
        {
          "indexed": false,
          "internalType": "string",
          "name": "recordType",
          "type": "string"
        },
        {
          "indexed": false,
          "internalType": "address",
          "name": "authorizedBy",
          "type": "address"
        }
      ],
      "name": "MedicalRecordCreated",
      "type": "event"
    },
    {
      "anonymous": false,
      "inputs": [
        {
          "indexed": true,
          "internalType": "address",
          "name": "previousOwner",
          "type": "address"
        },
        {
          "indexed": true,
          "internalType": "address",
          "name": "newOwner",
          "type": "address"
        }
      ],
      "name": "OwnershipTransferred",
      "type": "event"
    },
    {
      "anonymous": false,
      "inputs": [
        {
          "indexed": true,
          "internalType": "uint256",
          "name": "recordId",
          "type": "uint256"
        }
      ],
      "name": "RecordDeactivated",
      "type": "event"
    },
    {
      "inputs": [
        {
          "internalType": "bytes32",
          "name": "",
          "type": "bytes32"
        }
      ],
      "name": "consentRecords",
      "outputs": [
        {
          "internalType": "string",
          "name": "granterDID",
          "type": "string"
        },
        {
          "internalType": "string",
          "name": "granteeDID",
          "type": "string"
        },
        {
          "internalType": "uint256",
          "name": "expiryTime",
          "type": "uint256"
        },
        {
          "internalType": "bool",
          "name": "isActive",
          "type": "bool"
        }
      ],
      "stateMutability": "view",
      "type": "function"
    },
    {
      "inputs": [
        {
          "internalType": "string",
          "name": "_documentCID",
          "type": "string"
        },
        {
          "internalType": "string",
          "name": "_userDID",
          "type": "string"
        },
        {
          "internalType": "string",
          "name": "_recordType",
          "type": "string"
        },
        {
          "internalType": "address",
          "name": "_authorizedBy",
          "type": "address"
        },
        {
          "internalType": "string",
          "name": "_metadataHash",
          "type": "string"
        }
      ],
      "name": "createMedicalRecord",
      "outputs": [
        {
          "internalType": "uint256",
          "name": "",
          "type": "uint256"
        }
      ],
      "stateMutability": "nonpayable",
      "type": "function"
    },
    {
      "inputs": [
        {
          "internalType": "uint256",
          "name": "_recordId",
          "type": "uint256"
        }
      ],
      "name": "deactivateRecord",
      "outputs": [],
      "stateMutability": "nonpayable",
      "type": "function"
    },
    {
      "inputs": [
        {
          "internalType": "uint256",
          "name": "_recordId",
          "type": "uint256"
        }
      ],
      "name": "getMedicalRecord",
      "outputs": [
        {
          "components": [
            {
              "internalType": "string",
              "name": "documentCID",
              "type": "string"
            },
            {
              "internalType": "string",
              "name": "userDID",
              "type": "string"
            },
            {
              "internalType": "string",
              "name": "recordType",
              "type": "string"
            },
            {
              "internalType": "uint256",
              "name": "timestamp",
              "type": "uint256"
            },
            {
              "internalType": "address",
              "name": "authorizedBy",
              "type": "address"
            },
            {
              "internalType": "bool",
              "name": "isActive",
              "type": "bool"
            },
            {
              "internalType": "string",
              "name": "metadataHash",
              "type": "string"
            }
          ],
          "internalType": "struct MedicalRecordsRegistry.MedicalRecord",
          "name": "",
          "type": "tuple"
        }
      ],
      "stateMutability": "view",
      "type": "function"
    },
    {
      "inputs": [],
      "name": "getTotalRecords",
      "outputs": [
        {
          "internalType": "uint256",
          "name": "",
          "type": "uint256"
        }
      ],
      "stateMutability": "view",
      "type": "function"
    },
    {
      "inputs": [
        {
          "internalType": "string",
          "name": "_userDID",
          "type": "string"
        }
      ],
      "name": "getUserRecords",
      "outputs": [
        {
          "internalType": "uint256[]",
          "name": "",
          "type": "uint256[]"
        }
      ],
      "stateMutability": "view",
      "type": "function"
    },
    {
      "inputs": [
        {
          "internalType": "string",
          "name": "_granterDID",
          "type": "string"
        },
        {
          "internalType": "string",
          "name": "_granteeDID",
          "type": "string"
        },
        {
          "internalType": "uint256",
          "name": "_expiryTime",
          "type": "uint256"
        },
        {
          "internalType": "string[]",
          "name": "_recordTypes",
          "type": "string[]"
        }
      ],
      "name": "grantConsent",
      "outputs": [],
      "stateMutability": "nonpayable",
      "type": "function"
    },
    {
      "inputs": [
        {
          "internalType": "string",
          "name": "_granterDID",
          "type": "string"
        },
        {
          "internalType": "string",
          "name": "_granteeDID",
          "type": "string"
        },
        {
          "internalType": "string",
          "name": "_recordType",
          "type": "string"
        }
      ],
      "name": "hasValidConsent",
      "outputs": [
        {
          "internalType": "bool",
          "name": "",
          "type": "bool"
        }
      ],
      "stateMutability": "view",
      "type": "function"
    },
    {
      "inputs": [
        {
          "internalType": "uint256",
          "name": "",
          "type": "uint256"
        }
      ],
      "name": "medicalRecords",
      "outputs": [
        {
          "internalType": "string",
          "name": "documentCID",
          "type": "string"
        },
        {
          "internalType": "string",
          "name": "userDID",
          "type": "string"
        },
        {
          "internalType": "string",
          "name": "recordType",
          "type": "string"
        },
        {
          "internalType": "uint256",
          "name": "timestamp",
          "type": "uint256"
        },
        {
          "internalType": "address",
          "name": "authorizedBy",
          "type": "address"
        },
        {
          "internalType": "bool",
          "name": "isActive",
          "type": "bool"
        },
        {
          "internalType": "string",
          "name": "metadataHash",
          "type": "string"
        }
      ],
      "stateMutability": "view",
      "type": "function"
    },
    {
      "inputs": [],
      "name": "owner",
      "outputs": [
        {
          "internalType": "address",
          "name": "",
          "type": "address"
        }
      ],
      "stateMutability": "view",
      "type": "function"
    },
    {
      "inputs": [],
      "name": "recordCounter",
      "outputs": [
        {
          "internalType": "uint256",
          "name": "",
          "type": "uint256"
        }
      ],
      "stateMutability": "view",
      "type": "function"
    },
    {
      "inputs": [],
      "name": "renounceOwnership",
      "outputs": [],
      "stateMutability": "nonpayable",
      "type": "function"
    },
    {
      "inputs": [
        {
          "internalType": "string",
          "name": "_granterDID",
          "type": "string"
        },
        {
          "internalType": "string",
          "name": "_granteeDID",
          "type": "string"
        }
      ],
      "name": "revokeConsent",
      "outputs": [],
      "stateMutability": "nonpayable",
      "type": "function"
    },
    {
      "inputs": [
        {
          "internalType": "address",
          "name": "newOwner",
          "type": "address"
        }
      ],
      "name": "transferOwnership",
      "outputs": [],
      "stateMutability": "nonpayable",
      "type": "function"
    },
    {
      "inputs": [
        {
          "internalType": "string",
          "name": "",
          "type": "string"
        },
        {
          "internalType": "uint256",
          "name": "",
          "type": "uint256"
        }
      ],
      "name": "userRecords",
      "outputs": [
        {
          "internalType": "uint256",
          "name": "",
          "type": "uint256"
        }
      ],
      "stateMutability": "view",
      "type": "function"
    }
  ],
  "bytecode": "0x60806040523480156200001157600080fd5b5033600073ffffffffffffffffffffffffffffffffffffffff168173ffffffffffffffffffffffffffffffffffffffff1603620000885760006040517f1e4fbdf70000000000000000000000000000000000000000000000000000000081526004016200007f9190620001b0565b60405180910390fd5b6200009981620000a760201b60201c565b5060018081905550620001cd565b60008060009054906101000a900473ffffffffffffffffffffffffffffffffffffffff169050816000806101000a81548173ffffffffffffffffffffffffffffffffffffffff021916908373ffffffffffffffffffffffffffffffffffffffff1602179055508173ffffffffffffffffffffffffffffffffffffffff168173ffffffffffffffffffffffffffffffffffffffff167f8be0079c531659141344cd1fd0a4f28419497f9722a3daafe3b4186f6b6457e060405160405180910390a35050565b600073ffffffffffffffffffffffffffffffffffffffff82169050919050565b600062000198826200016b565b9050919050565b620001aa816200018b565b82525050565b6000602082019050620001c760008301846200019f565b92915050565b6130a580620001dd6000396000f3fe608060405234801561001057600080fd5b50600436106100f55760003560e01c8063715018a6116100975780638da5cb5b116100665780638da5cb5b1461028a578063ad7f17c2146102a8578063d2e7e1de146102d8578063f2fde38b1461030b576100f5565b8063715018a6146102105780637564a13c1461021a5780637599be5d146102505780638b9b77551461026e576100f5565b80631b003ba3116100d35780631b003ba3146101645780633c6fd2d8146101945780635fd0da67146101c45780636a81f842146101f4576100f5565b80630aeacb5e146100fa5780630c3887221461011857806319c1833f14610148575b600080fd5b610102610327565b60405161010f9190611a8b565b60405180910390f35b610132600480360381019061012d9190611ae6565b610331565b60405161013f9190611cbf565b60405180910390f35b610162600480360381019061015d9190611ae6565b610672565b005b61017e60048036038101906101799190611e16565b610848565b60405161018b9190611a8b565b60405180910390f35b6101ae60048036038101906101a99190611e72565b61088f565b6040516101bb9190611f6a565b60405180910390f35b6101de60048036038101906101d99190611fb8565b610905565b6040516101eb9190611a8b565b60405180910390f35b61020e600480360381019061020991906120a3565b610c40565b005b610218610d5c565b005b610234600480360381019061022f9190611ae6565b610d70565b6040516102479796959493929190612183565b60405180910390f35b610258610fff565b6040516102659190611a8b565b60405180910390f35b610288600480360381019061028391906122f4565b611005565b005b61029261125f565b60405161029f91906123af565b60405180910390f35b6102c260048036038101906102bd91906123ca565b611288565b6040516102cf9190612471565b60405180910390f35b6102f260048036038101906102ed91906124c2565b6115ce565b60405161030294939291906124ef565b60405180910390f35b61032560048036038101906103209190612542565b61171b565b005b6000600554905090565b610339611943565b60008211801561034b57506005548211155b61038a576040517f08c379a0000000000000000000000000000000000000000000000000000000008152600401610381906125bb565b60405180910390fd5b600260008381526020019081526020016000206040518060e00160405290816000820180546103b89061260a565b80601f01602080910402602001604051908101604052809291908181526020018280546103e49061260a565b80156104315780601f1061040657610100808354040283529160200191610431565b820191906000526020600020905b81548152906001019060200180831161041457829003601f168201915b5050505050815260200160018201805461044a9061260a565b80601f01602080910402602001604051908101604052809291908181526020018280546104769061260a565b80156104c35780601f10610498576101008083540402835291602001916104c3565b820191906000526020600020905b8154815290600101906020018083116104a657829003601f168201915b505050505081526020016002820180546104dc9061260a565b80601f01602080910402602001604051908101604052809291908181526020018280546105089061260a565b80156105555780601f1061052a57610100808354040283529160200191610555565b820191906000526020600020905b81548152906001019060200180831161053857829003601f168201915b50505050508152602001600382015481526020016004820160009054906101000a900473ffffffffffffffffffffffffffffffffffffffff1673ffffffffffffffffffffffffffffffffffffffff1673ffffffffffffffffffffffffffffffffffffffff1681526020016004820160149054906101000a900460ff161515151581526020016005820180546105e99061260a565b80601f01602080910402602001604051908101604052809291908181526020018280546106159061260a565b80156106625780601f1061063757610100808354040283529160200191610662565b820191906000526020600020905b81548152906001019060200180831161064557829003601f168201915b5050505050815250509050919050565b60008111801561068457506005548111155b6106c3576040517f08c379a00000000000000000000000000000000000000000000000000000000081526004016106ba906125bb565b60405180910390fd5b60006002600083815260200190815260200160002090508060040160149054906101000a900460ff1661072b576040517f08c379a000000000000000000000000000000000000000000000000000000000815260040161072290612687565b60405180910390fd5b61073361125f565b73ffffffffffffffffffffffffffffffffffffffff163373ffffffffffffffffffffffffffffffffffffffff1614806107bb57508060040160009054906101000a900473ffffffffffffffffffffffffffffffffffffffff1673ffffffffffffffffffffffffffffffffffffffff163373ffffffffffffffffffffffffffffffffffffffff16145b6107fa576040517f08c379a00000000000000000000000000000000000000000000000000000000081526004016107f190612719565b60405180910390fd5b60008160040160146101000a81548160ff021916908315150217905550817fb01eee654bd020ff6f14711b8d649a08d09b7a4574a3a622258995bd5dce2ce060405160405180910390a25050565b600382805160208101820180518482526020830160208501208183528095505050505050818154811061087a57600080fd5b90600052602060002001600091509150505481565b60606003826040516108a19190612775565b90815260200160405180910390208054806020026020016040519081016040528092919081815260200182805480156108f957602002820191906000526020600020905b8154815260200190600101908083116108e5575b50505050509050919050565b600061090f6117a1565b6000865111610953576040517f08c379a000000000000000000000000000000000000000000000000000000000815260040161094a906127d8565b60405180910390fd5b6000855111610997576040517f08c379a000000000000000000000000000000000000000000000000000000000815260040161098e90612844565b60405180910390fd5b60008451116109db576040517f08c379a00000000000000000000000000000000000000000000000000000000081526004016109d2906128b0565b60405180910390fd5b600073ffffffffffffffffffffffffffffffffffffffff168373ffffffffffffffffffffffffffffffffffffffff1603610a4a576040517f08c379a0000000000000000000000000000000000000000000000000000000008152600401610a4190612942565b60405180910390fd5b60056000815480929190610a5d90612991565b91905055506040518060e001604052808781526020018681526020018581526020014281526020018473ffffffffffffffffffffffffffffffffffffffff168152602001600115158152602001838152506002600060055481526020019081526020016000206000820151816000019081610ad89190612b85565b506020820151816001019081610aee9190612b85565b506040820151816002019081610b049190612b85565b506060820151816003015560808201518160040160006101000a81548173ffffffffffffffffffffffffffffffffffffffff021916908373ffffffffffffffffffffffffffffffffffffffff16021790555060a08201518160040160146101000a81548160ff02191690831515021790555060c0820151816005019081610b8b9190612b85565b50905050600385604051610b9f9190612775565b9081526020016040518091039020600554908060018154018082558091505060019003906000526020600020016000909190919091505584604051610be49190612775565b60405180910390206005547f111c7449b1545f574046a952b53bf6431a4971f1f00a6a9bfde31f6b37875ed7888787604051610c2293929190612c57565b60405180910390a36005549050610c376117e7565b95945050505050565b60008282604051602001610c55929190612c9c565b6040516020818303038152906040528051906020012090506004600082815260200190815260200160002060030160009054906101000a900460ff16610cd0576040517f08c379a0000000000000000000000000000000000000000000000000000000008152600401610cc790612d32565b60405180910390fd5b60006004600083815260200190815260200160002060030160006101000a81548160ff02191690831515021790555081604051610d0d9190612775565b604051809103902083604051610d239190612775565b60405180910390207f58be8cc4f03cdc151ac17758ab858248a12a85feb120ca64ca286efd7c5b60a960405160405180910390a3505050565b610d646117f0565b610d6e6000611877565b565b6002602052806000526040600020600091509050806000018054610d939061260a565b80601f0160208091040260200160405190810160405280929190818152602001828054610dbf9061260a565b8015610e0c5780601f10610de157610100808354040283529160200191610e0c565b820191906000526020600020905b815481529060010190602001808311610def57829003601f168201915b505050505090806001018054610e219061260a565b80601f0160208091040260200160405190810160405280929190818152602001828054610e4d9061260a565b8015610e9a5780601f10610e6f57610100808354040283529160200191610e9a565b820191906000526020600020905b815481529060010190602001808311610e7d57829003601f168201915b505050505090806002018054610eaf9061260a565b80601f0160208091040260200160405190810160405280929190818152602001828054610edb9061260a565b8015610f285780601f10610efd57610100808354040283529160200191610f28565b820191906000526020600020905b815481529060010190602001808311610f0b57829003601f168201915b5050505050908060030154908060040160009054906101000a900473ffffffffffffffffffffffffffffffffffffffff16908060040160149054906101000a900460ff1690806005018054610f7c9061260a565b80601f0160208091040260200160405190810160405280929190818152602001828054610fa89061260a565b8015610ff55780601f10610fca57610100808354040283529160200191610ff5565b820191906000526020600020905b815481529060010190602001808311610fd857829003601f168201915b5050505050905087565b60055481565b6000845111611049576040517f08c379a000000000000000000000000000000000000000000000000000000000815260040161104090612d9e565b60405180910390fd5b600083511161108d576040517f08c379a000000000000000000000000000000000000000000000000000000000815260040161108490612e0a565b60405180910390fd5b4282116110cf576040517f08c379a00000000000000000000000000000000000000000000000000000000081526004016110c690612e9c565b60405180910390fd5b6000815111611113576040517f08c379a000000000000000000000000000000000000000000000000000000000815260040161110a90612f2e565b60405180910390fd5b60008484604051602001611128929190612c9c565b6040516020818303038152906040528051906020012090506040518060a00160405280868152602001858152602001848152602001600115158152602001838152506004600083815260200190815260200160002060008201518160000190816111929190612b85565b5060208201518160010190816111a89190612b85565b506040820151816002015560608201518160030160006101000a81548160ff02191690831515021790555060808201518160040190805190602001906111ef929190611998565b50905050836040516112019190612775565b6040518091039020856040516112179190612775565b60405180910390207fe078d06333b1438f52bb3ff399b7ee5a2e3d414da03ab6e59ba2e91e351d9bd78585604051611250929190613010565b60405180910390a35050505050565b60008060009054906101000a900473ffffffffffffffffffffffffffffffffffffffff16905090565b600080848460405160200161129e929190612c9c565b6040516020818303038152906040528051906020012090506000600460008381526020019081526020016000206040518060a00160405290816000820180546112e69061260a565b80601f01602080910402602001604051908101604052809291908181526020018280546113129061260a565b801561135f5780601f106113345761010080835404028352916020019161135f565b820191906000526020600020905b81548152906001019060200180831161134257829003601f168201915b505050505081526020016001820180546113789061260a565b80601f01602080910402602001604051908101604052809291908181526020018280546113a49061260a565b80156113f15780601f106113c6576101008083540402835291602001916113f1565b820191906000526020600020905b8154815290600101906020018083116113d457829003601f168201915b50505050508152602001600282015481526020016003820160009054906101000a900460ff1615151515815260200160048201805480602002602001604051908101604052809291908181526020016000905b828210156114f05783829060005260206000200180546114639061260a565b80601f016020809104026020016040519081016040528092919081815260200182805461148f9061260a565b80156114dc5780601f106114b1576101008083540402835291602001916114dc565b820191906000526020600020905b8154815290600101906020018083116114bf57829003601f168201915b505050505081526020019060010190611444565b505050508152505090508060600151158061150f575042816040015111155b1561151f576000925050506115c7565b60005b8160800151518110156115bf57846040516020016115409190612775565b604051602081830303815290604052805190602001208260800151828151811061156d5761156c613040565b5b60200260200101516040516020016115859190612775565b60405160208183030381529060405280519060200120036115ac57600193505050506115c7565b80806115b790612991565b915050611522565b506000925050505b9392505050565b60046020528060005260406000206000915090508060000180546115f19061260a565b80601f016020809104026020016040519081016040528092919081815260200182805461161d9061260a565b801561166a5780601f1061163f5761010080835404028352916020019161166a565b820191906000526020600020905b81548152906001019060200180831161164d57829003601f168201915b50505050509080600101805461167f9061260a565b80601f01602080910402602001604051908101604052809291908181526020018280546116ab9061260a565b80156116f85780601f106116cd576101008083540402835291602001916116f8565b820191906000526020600020905b8154815290600101906020018083116116db57829003601f168201915b5050505050908060020154908060030160009054906101000a900460ff16905084565b6117236117f0565b600073ffffffffffffffffffffffffffffffffffffffff168173ffffffffffffffffffffffffffffffffffffffff16036117955760006040517f1e4fbdf700000000000000000000000000000000000000000000000000000000815260040161178c91906123af565b60405180910390fd5b61179e81611877565b50565b6002600154036117dd576040517f3ee5aeb500000000000000000000000000000000000000000000000000000000815260040160405180910390fd5b6002600181905550565b60018081905550565b6117f861193b565b73ffffffffffffffffffffffffffffffffffffffff1661181661125f565b73ffffffffffffffffffffffffffffffffffffffff16146118755761183961193b565b6040517f118cdaa700000000000000000000000000000000000000000000000000000000815260040161186c91906123af565b60405180910390fd5b565b60008060009054906101000a900473ffffffffffffffffffffffffffffffffffffffff169050816000806101000a81548173ffffffffffffffffffffffffffffffffffffffff021916908373ffffffffffffffffffffffffffffffffffffffff1602179055508173ffffffffffffffffffffffffffffffffffffffff168173ffffffffffffffffffffffffffffffffffffffff167f8be0079c531659141344cd1fd0a4f28419497f9722a3daafe3b4186f6b6457e060405160405180910390a35050565b600033905090565b6040518060e0016040528060608152602001606081526020016060815260200160008152602001600073ffffffffffffffffffffffffffffffffffffffff168152602001600015158152602001606081525090565b8280548282559060005260206000209081019282156119e0579160200282015b828111156119df5782518290816119cf9190612b85565b50916020019190600101906119b8565b5b5090506119ed91906119f1565b5090565b5b80821115611a115760008181611a089190611a15565b506001016119f2565b5090565b508054611a219061260a565b6000825580601f10611a335750611a52565b601f016020900490600052602060002090810190611a519190611a55565b5b50565b5b80821115611a6e576000816000905550600101611a56565b5090565b6000819050919050565b611a8581611a72565b82525050565b6000602082019050611aa06000830184611a7c565b92915050565b6000604051905090565b600080fd5b600080fd5b611ac381611a72565b8114611ace57600080fd5b50565b600081359050611ae081611aba565b92915050565b600060208284031215611afc57611afb611ab0565b5b6000611b0a84828501611ad1565b91505092915050565b600081519050919050565b600082825260208201905092915050565b60005b83811015611b4d578082015181840152602081019050611b32565b60008484015250505050565b6000601f19601f8301169050919050565b6000611b7582611b13565b611b7f8185611b1e565b9350611b8f818560208601611b2f565b611b9881611b59565b840191505092915050565b611bac81611a72565b82525050565b600073ffffffffffffffffffffffffffffffffffffffff82169050919050565b6000611bdd82611bb2565b9050919050565b611bed81611bd2565b82525050565b60008115159050919050565b611c0881611bf3565b82525050565b600060e0830160008301518482036000860152611c2b8282611b6a565b91505060208301518482036020860152611c458282611b6a565b91505060408301518482036040860152611c5f8282611b6a565b9150506060830151611c746060860182611ba3565b506080830151611c876080860182611be4565b5060a0830151611c9a60a0860182611bff565b5060c083015184820360c0860152611cb28282611b6a565b9150508091505092915050565b60006020820190508181036000830152611cd98184611c0e565b905092915050565b600080fd5b600080fd5b7f4e487b7100000000000000000000000000000000000000000000000000000000600052604160045260246000fd5b611d2382611b59565b810181811067ffffffffffffffff82111715611d4257611d41611ceb565b5b80604052505050565b6000611d55611aa6565b9050611d618282611d1a565b919050565b600067ffffffffffffffff821115611d8157611d80611ceb565b5b611d8a82611b59565b9050602081019050919050565b82818337600083830152505050565b6000611db9611db484611d66565b611d4b565b905082815260208101848484011115611dd557611dd4611ce6565b5b611de0848285611d97565b509392505050565b600082601f830112611dfd57611dfc611ce1565b5b8135611e0d848260208601611da6565b91505092915050565b60008060408385031215611e2d57611e2c611ab0565b5b600083013567ffffffffffffffff811115611e4b57611e4a611ab5565b5b611e5785828601611de8565b9250506020611e6885828601611ad1565b9150509250929050565b600060208284031215611e8857611e87611ab0565b5b600082013567ffffffffffffffff811115611ea657611ea5611ab5565b5b611eb284828501611de8565b91505092915050565b600081519050919050565b600082825260208201905092915050565b6000819050602082019050919050565b6000611ef38383611ba3565b60208301905092915050565b6000602082019050919050565b6000611f1782611ebb565b611f218185611ec6565b9350611f2c83611ed7565b8060005b83811015611f5d578151611f448882611ee7565b9750611f4f83611eff565b925050600181019050611f30565b5085935050505092915050565b60006020820190508181036000830152611f848184611f0c565b905092915050565b611f9581611bd2565b8114611fa057600080fd5b50565b600081359050611fb281611f8c565b92915050565b600080600080600060a08688031215611fd457611fd3611ab0565b5b600086013567ffffffffffffffff811115611ff257611ff1611ab5565b5b611ffe88828901611de8565b955050602086013567ffffffffffffffff81111561201f5761201e611ab5565b5b61202b88828901611de8565b945050604086013567ffffffffffffffff81111561204c5761204b611ab5565b5b61205888828901611de8565b935050606061206988828901611fa3565b925050608086013567ffffffffffffffff81111561208a57612089611ab5565b5b61209688828901611de8565b9150509295509295909350565b600080604083850312156120ba576120b9611ab0565b5b600083013567ffffffffffffffff8111156120d8576120d7611ab5565b5b6120e485828601611de8565b925050602083013567ffffffffffffffff81111561210557612104611ab5565b5b61211185828601611de8565b9150509250929050565b600082825260208201905092915050565b600061213782611b13565b612141818561211b565b9350612151818560208601611b2f565b61215a81611b59565b840191505092915050565b61216e81611bd2565b82525050565b61217d81611bf3565b82525050565b600060e082019050818103600083015261219d818a61212c565b905081810360208301526121b1818961212c565b905081810360408301526121c5818861212c565b90506121d46060830187611a7c565b6121e16080830186612165565b6121ee60a0830185612174565b81810360c0830152612200818461212c565b905098975050505050505050565b600067ffffffffffffffff82111561222957612228611ceb565b5b602082029050602081019050919050565b600080fd5b600061225261224d8461220e565b611d4b565b905080838252602082019050602084028301858111156122755761227461223a565b5b835b818110156122bc57803567ffffffffffffffff81111561229a57612299611ce1565b5b8086016122a78982611de8565b85526020850194505050602081019050612277565b5050509392505050565b600082601f8301126122db576122da611ce1565b5b81356122eb84826020860161223f565b91505092915050565b6000806000806080858703121561230e5761230d611ab0565b5b600085013567ffffffffffffffff81111561232c5761232b611ab5565b5b61233887828801611de8565b945050602085013567ffffffffffffffff81111561235957612358611ab5565b5b61236587828801611de8565b935050604061237687828801611ad1565b925050606085013567ffffffffffffffff81111561239757612396611ab5565b5b6123a3878288016122c6565b91505092959194509250565b60006020820190506123c46000830184612165565b92915050565b6000806000606084860312156123e3576123e2611ab0565b5b600084013567ffffffffffffffff81111561240157612400611ab5565b5b61240d86828701611de8565b935050602084013567ffffffffffffffff81111561242e5761242d611ab5565b5b61243a86828701611de8565b925050604084013567ffffffffffffffff81111561245b5761245a611ab5565b5b61246786828701611de8565b9150509250925092565b60006020820190506124866000830184612174565b92915050565b6000819050919050565b61249f8161248c565b81146124aa57600080fd5b50565b6000813590506124bc81612496565b92915050565b6000602082840312156124d8576124d7611ab0565b5b60006124e6848285016124ad565b91505092915050565b60006080820190508181036000830152612509818761212c565b9050818103602083015261251d818661212c565b905061252c6040830185611a7c565b6125396060830184612174565b95945050505050565b60006020828403121561255857612557611ab0565b5b600061256684828501611fa3565b91505092915050565b7f496e76616c6964207265636f7264204944000000000000000000000000000000600082015250565b60006125a560118361211b565b91506125b08261256f565b602082019050919050565b600060208201905081810360008301526125d481612598565b9050919050565b7f4e487b7100000000000000000000000000000000000000000000000000000000600052602260045260246000fd5b6000600282049050600182168061262257607f821691505b602082108103612635576126346125db565b5b50919050565b7f5265636f726420616c7265616479206465616374697661746564000000000000600082015250565b6000612671601a8361211b565b915061267c8261263b565b602082019050919050565b600060208201905081810360008301526126a081612664565b9050919050565b7f4e6f7420617574686f72697a656420746f20646561637469766174652074686960008201527f73207265636f7264000000000000000000000000000000000000000000000000602082015250565b600061270360288361211b565b915061270e826126a7565b604082019050919050565b60006020820190508181036000830152612732816126f6565b9050919050565b600081905092915050565b600061274f82611b13565b6127598185612739565b9350612769818560208601611b2f565b80840191505092915050565b60006127818284612744565b915081905092915050565b7f446f63756d656e74204349442063616e6e6f7420626520656d70747900000000600082015250565b60006127c2601c8361211b565b91506127cd8261278c565b602082019050919050565b600060208201905081810360008301526127f1816127b5565b9050919050565b7f55736572204449442063616e6e6f7420626520656d7074790000000000000000600082015250565b600061282e60188361211b565b9150612839826127f8565b602082019050919050565b6000602082019050818103600083015261285d81612821565b9050919050565b7f5265636f726420747970652063616e6e6f7420626520656d7074790000000000600082015250565b600061289a601b8361211b565b91506128a582612864565b602082019050919050565b600060208201905081810360008301526128c98161288d565b9050919050565b7f417574686f72697a65642062792063616e6e6f74206265207a65726f2061646460008201527f7265737300000000000000000000000000000000000000000000000000000000602082015250565b600061292c60248361211b565b9150612937826128d0565b604082019050919050565b6000602082019050818103600083015261295b8161291f565b9050919050565b7f4e487b7100000000000000000000000000000000000000000000000000000000600052601160045260246000fd5b600061299c82611a72565b91507fffffffffffffffffffffffffffffffffffffffffffffffffffffffffffffffff82036129ce576129cd612962565b5b600182019050919050565b60008190508160005260206000209050919050565b60006020601f8301049050919050565b600082821b905092915050565b600060088302612a3b7fffffffffffffffffffffffffffffffffffffffffffffffffffffffffffffffff826129fe565b612a4586836129fe565b95508019841693508086168417925050509392505050565b6000819050919050565b6000612a82612a7d612a7884611a72565b612a5d565b611a72565b9050919050565b6000819050919050565b612a9c83612a67565b612ab0612aa882612a89565b848454612a0b565b825550505050565b600090565b612ac5612ab8565b612ad0818484612a93565b505050565b5b81811015612af457612ae9600082612abd565b600181019050612ad6565b5050565b601f821115612b3957612b0a816129d9565b612b13846129ee565b81016020851015612b22578190505b612b36612b2e856129ee565b830182612ad5565b50505b505050565b600082821c905092915050565b6000612b5c60001984600802612b3e565b1980831691505092915050565b6000612b758383612b4b565b9150826002028217905092915050565b612b8e82611b13565b67ffffffffffffffff811115612ba757612ba6611ceb565b5b612bb1825461260a565b612bbc828285612af8565b600060209050601f831160018114612bef5760008415612bdd578287015190505b612be78582612b69565b865550612c4f565b601f198416612bfd866129d9565b60005b82811015612c2557848901518255600182019150602085019450602081019050612c00565b86831015612c425784890151612c3e601f891682612b4b565b8355505b6001600288020188555050505b505050505050565b60006060820190508181036000830152612c71818661212c565b90508181036020830152612c85818561212c565b9050612c946040830184612165565b949350505050565b6000612ca88285612744565b9150612cb48284612744565b91508190509392505050565b7f436f6e73656e7420646f6573206e6f74206578697374206f7220616c7265616460008201527f79207265766f6b65640000000000000000000000000000000000000000000000602082015250565b6000612d1c60298361211b565b9150612d2782612cc0565b604082019050919050565b60006020820190508181036000830152612d4b81612d0f565b9050919050565b7f4772616e746572204449442063616e6e6f7420626520656d7074790000000000600082015250565b6000612d88601b8361211b565b9150612d9382612d52565b602082019050919050565b60006020820190508181036000830152612db781612d7b565b9050919050565b7f4772616e746565204449442063616e6e6f7420626520656d7074790000000000600082015250565b6000612df4601b8361211b565b9150612dff82612dbe565b602082019050919050565b60006020820190508181036000830152612e2381612de7565b9050919050565b7f4578706972792074696d65206d75737420626520696e2074686520667574757260008201527f6500000000000000000000000000000000000000000000000000000000000000602082015250565b6000612e8660218361211b565b9150612e9182612e2a565b604082019050919050565b60006020820190508181036000830152612eb581612e79565b9050919050565b7f4d7573742073706563696679206174206c65617374206f6e65207265636f726460008201527f2074797065000000000000000000000000000000000000000000000000000000602082015250565b6000612f1860258361211b565b9150612f2382612ebc565b604082019050919050565b60006020820190508181036000830152612f4781612f0b565b9050919050565b600081519050919050565b600082825260208201905092915050565b6000819050602082019050919050565b6000612f868383611b6a565b905092915050565b6000602082019050919050565b6000612fa682612f4e565b612fb08185612f59565b935083602082028501612fc285612f6a565b8060005b85811015612ffe5784840389528151612fdf8582612f7a565b9450612fea83612f8e565b925060208a01995050600181019050612fc6565b50829750879550505050505092915050565b60006040820190506130256000830185611a7c565b81810360208301526130378184612f9b565b90509392505050565b7f4e487b7100000000000000000000000000000000000000000000000000000000600052603260045260246000fdfea2646970667358221220700cd8d485365d799dc9c4c2ca216df2f5fbd3bfd5afedee46a314f9fa02ce9b64736f6c63430008140033",
  "linkReferences": {},
  "deployedLinkReferences": {}
}